{
  "contractName": "EtherProfile",
  "abi": [
    {
      "constant": true,
      "inputs": [
        {
          "name": "_address",
          "type": "address"
        }
      ],
      "name": "getProfile",
      "outputs": [
        {
          "name": "",
          "type": "string"
        }
      ],
      "payable": false,
      "stateMutability": "view",
      "type": "function"
    },
    {
      "constant": true,
      "inputs": [],
      "name": "numAccounts",
      "outputs": [
        {
          "name": "",
          "type": "uint256"
        }
      ],
      "payable": false,
      "stateMutability": "view",
      "type": "function"
    },
    {
      "constant": false,
      "inputs": [
        {
          "name": "name",
          "type": "string"
        },
        {
          "name": "imgURL",
          "type": "string"
        },
        {
          "name": "contact",
          "type": "string"
        },
        {
          "name": "aboutMe",
          "type": "string"
        }
      ],
      "name": "updateProfile",
      "outputs": [],
      "payable": false,
      "stateMutability": "nonpayable",
      "type": "function"
    },
    {
      "inputs": [],
      "payable": false,
      "stateMutability": "nonpayable",
      "type": "constructor"
    },
    {
      "anonymous": false,
      "inputs": [
        {
          "indexed": false,
          "name": "addr",
          "type": "address"
        }
      ],
      "name": "UpdateProfile",
      "type": "event"
    }
  ],
  "bytecode": "0x60606040526000600155341561001457600080fd5b336000806101000a81548173ffffffffffffffffffffffffffffffffffffffff021916908373ffffffffffffffffffffffffffffffffffffffff16021790555061052f806100636000396000f300606060405260043610610057576000357c0100000000000000000000000000000000000000000000000000000000900463ffffffff1680630f53a4701461005c5780638ce25a931461010e5780639483f25c14610137575b600080fd5b341561006757600080fd5b610093600480803573ffffffffffffffffffffffffffffffffffffffff1690602001909190505061025d565b6040518080602001828103825283818151815260200191508051906020019080838360005b838110156100d35780820151818401526020810190506100b8565b50505050905090810190601f1680156101005780820380516001836020036101000a031916815260200191505b509250505060405180910390f35b341561011957600080fd5b610121610379565b6040518082815260200191505060405180910390f35b341561014257600080fd5b61025b600480803590602001908201803590602001908080601f0160208091040260200160405190810160405280939291908181526020018383808284378201915050505050509190803590602001908201803590602001908080601f0160208091040260200160405190810160405280939291908181526020018383808284378201915050505050509190803590602001908201803590602001908080601f0160208091040260200160405190810160405280939291908181526020018383808284378201915050505050509190803590602001908201803590602001908080601f0160208091040260200160405190810160405280939291908181526020018383808284378201915050505050509190505061037f565b005b61026561044a565b6000600360008473ffffffffffffffffffffffffffffffffffffffff1673ffffffffffffffffffffffffffffffffffffffff1681526020019081526020016000205490506000811115156102b857600080fd5b6002818154811015156102c757fe5b90600052602060002090600602016002018054600181600116156101000203166002900480601f01602080910402602001604051908101604052809291908181526020018280546001816001161561010002031660029004801561036c5780601f106103415761010080835404028352916020019161036c565b820191906000526020600020905b81548152906001019060200180831161034f57829003601f168201915b5050505050915050919050565b60015481565b60006002600360003373ffffffffffffffffffffffffffffffffffffffff1673ffffffffffffffffffffffffffffffffffffffff168152602001908152602001600020548154811015156103cf57fe5b90600052602060002090600602019050848160020190805190602001906103f792919061045e565b508381600301908051906020019061041092919061045e565b508281600401908051906020019061042992919061045e565b508181600501908051906020019061044292919061045e565b505050505050565b602060405190810160405280600081525090565b828054600181600116156101000203166002900490600052602060002090601f016020900481019282601f1061049f57805160ff19168380011785556104cd565b828001600101855582156104cd579182015b828111156104cc5782518255916020019190600101906104b1565b5b5090506104da91906104de565b5090565b61050091905b808211156104fc5760008160009055506001016104e4565b5090565b905600a165627a7a72305820b564bb947d18a11345a77d79c3ada77c4ef5bec3577749d7a7a4f31996881f870029",
  "source": "pragma solidity ^0.4.18;\n\n// Holds a contract of all profiles that can be updated.\ncontract EtherProfile {\n    address owner;\n    uint256 public numAccounts = 0;\n\n    Profile[] profiles;\n    mapping(address => uint256) addressToProfileId;\n\n    struct Profile {\n        address addr;\n        uint id;\n        string name;\n        string imgURL;\n        string contact;\n        string aboutMe;\n    }\n\n    event UpdateProfile(address addr);\n    \n    function EtherProfile() public {\n        owner = msg.sender;\n    }\n\n    // function getProfile(address _address) public constant returns(\n    //     address,\n    //     string,\n    //     string,\n    //     string,\n    //     string\n    // ) {\n    //     Profile storage profile = profiles[addressToProfileId[_address]];\n    //     return (\n    //         profile.addr,\n    //         profile.name,\n    //         profile.imgURL,\n    //         profile.contact,\n    //         profile.aboutMe\n    //     );\n    // }\n\n    function getProfile(address _address) public view returns(\n        string\n    ) {\n        uint256 id = addressToProfileId[_address];\n        require(id > 0);\n        return profiles[id].name;\n    }\n\n    function createProfile(address _address) private returns(uint256) {\n        uint256 id = profiles.length++;\n        addressToProfileId[_address] = id;\n        Profile storage p = profiles[id];\n        p.addr = _address;\n        p.id = id;\n        return id;\n    }\n\n    // Simple for now because params are not optional\n    function updateProfile(\n        string name,\n        string imgURL,\n        string contact,\n        string aboutMe\n    ) public\n    {\n        Profile storage profile = profiles[addressToProfileId[msg.sender]];\n        profile.name = name;\n        profile.imgURL = imgURL;\n        profile.contact = contact;\n        profile.aboutMe = aboutMe;\n    }\n}",
  "sourcePath": "/Users/mattkim/Workspaces/ether/ethermail/contracts/EtherProfile.sol",
  "compiler": {
    "name": "solc",
    "version": "0.4.18+commit.9cf6e910.Emscripten.clang"
  },
  "schemaVersion": "1.0.1",
  "updatedAt": "2018-01-14T02:40:17.335Z"
}