{
  "contractName": "EtherProfileVersions",
  "abi": [
    {
      "constant": true,
      "inputs": [
        {
          "name": "_address",
          "type": "address"
        }
      ],
      "name": "getProfileVersion",
      "outputs": [
        {
          "name": "",
          "type": "uint256"
        }
      ],
      "payable": false,
      "stateMutability": "view",
      "type": "function"
    },
    {
      "constant": false,
      "inputs": [
        {
          "name": "_address",
          "type": "address"
        },
        {
          "name": "version",
          "type": "uint256"
        }
      ],
      "name": "updateProfileVersion",
      "outputs": [],
      "payable": false,
      "stateMutability": "nonpayable",
      "type": "function"
    },
    {
      "inputs": [],
      "payable": false,
      "stateMutability": "nonpayable",
      "type": "constructor"
    }
  ],
  "bytecode": "0x6060604052341561000f57600080fd5b336000806101000a81548173ffffffffffffffffffffffffffffffffffffffff021916908373ffffffffffffffffffffffffffffffffffffffff1602179055506102ed8061005e6000396000f30060606040526004361061004c576000357c0100000000000000000000000000000000000000000000000000000000900463ffffffff1680636a4c759314610051578063a1ed7bd71461009e575b600080fd5b341561005c57600080fd5b610088600480803573ffffffffffffffffffffffffffffffffffffffff169060200190919050506100e0565b6040518082815260200191505060405180910390f35b34156100a957600080fd5b6100de600480803573ffffffffffffffffffffffffffffffffffffffff16906020019091908035906020019091905050610129565b005b6000600360008373ffffffffffffffffffffffffffffffffffffffff1673ffffffffffffffffffffffffffffffffffffffff168152602001908152602001600020549050919050565b600080600260008573ffffffffffffffffffffffffffffffffffffffff1673ffffffffffffffffffffffffffffffffffffffff1681526020019081526020016000205411151561022757600180548091906001016101879190610270565b90508260018281548110151561019957fe5b906000526020600020900160006101000a81548173ffffffffffffffffffffffffffffffffffffffff021916908373ffffffffffffffffffffffffffffffffffffffff16021790555080600260008573ffffffffffffffffffffffffffffffffffffffff1673ffffffffffffffffffffffffffffffffffffffff168152602001908152602001600020819055505b81600360008573ffffffffffffffffffffffffffffffffffffffff1673ffffffffffffffffffffffffffffffffffffffff16815260200190815260200160002081905550505050565b81548183558181151161029757818360005260206000209182019101610296919061029c565b5b505050565b6102be91905b808211156102ba5760008160009055506001016102a2565b5090565b905600a165627a7a72305820003abee27700e2fed489c9388141e8d9f49a89f778a40c501d572f41db7b1e750029",
  "source": "pragma solidity ^0.4.18;\n\n// Holds a contract of all profiles that can be updated.\ncontract EtherProfileVersions {\n    address owner;\n\n    // For backfills if needed later\n    address[] ids;\n    mapping(address => uint256) addressToId;\n\n    // Version for ether profile contract.\n    mapping(address => uint256) addressToProfileVersion;\n\n    function EtherProfileVersions() public {\n        owner = msg.sender;\n    }\n\n    function updateProfileVersion(address _address, uint256 version) public {\n        if (addressToId[_address] <= 0) {\n            uint256 newId = ids.length++;\n            ids[newId] = _address;\n            addressToId[_address] = newId;\n        }\n\n        addressToProfileVersion[_address] = version;\n    }\n\n    function getProfileVersion(address _address) public view returns(uint256) {\n        return addressToProfileVersion[_address];\n    }\n}\n",
  "sourcePath": "/Users/mattkim/Workspaces/ether/ethermail/contracts/EtherProfileVersions.sol",
  "compiler": {
    "name": "solc",
    "version": "0.4.18+commit.9cf6e910.Emscripten.clang"
  },
  "schemaVersion": "1.0.1",
  "updatedAt": "2018-01-21T23:25:06.371Z"
}