{
  "contractName": "EtherProfile",
  "abi": [
    {
      "constant": false,
      "inputs": [
        {
          "name": "data",
          "type": "string"
        }
      ],
      "name": "updateProfile",
      "outputs": [],
      "payable": false,
      "stateMutability": "nonpayable",
      "type": "function"
    },
    {
      "constant": true,
      "inputs": [
        {
          "name": "_address",
          "type": "address"
        }
      ],
      "name": "getProfile",
      "outputs": [
        {
          "name": "",
          "type": "string"
        }
      ],
      "payable": false,
      "stateMutability": "view",
      "type": "function"
    },
    {
      "inputs": [],
      "payable": false,
      "stateMutability": "nonpayable",
      "type": "constructor"
    }
  ],
  "bytecode": "0x6060604052341561000f57600080fd5b336000806101000a81548173ffffffffffffffffffffffffffffffffffffffff021916908373ffffffffffffffffffffffffffffffffffffffff1602179055506103888061005e6000396000f30060606040526004361061004b576000357c0100000000000000000000000000000000000000000000000000000000900463ffffffff1680629299e3146100505780630f53a470146100ad575b600080fd5b341561005b57600080fd5b6100ab600480803590602001908201803590602001908080601f0160208091040260200160405190810160405280939291908181526020018383808284378201915050505050509190505061015f565b005b34156100b857600080fd5b6100e4600480803573ffffffffffffffffffffffffffffffffffffffff169060200190919050506101bc565b6040518080602001828103825283818151815260200191508051906020019080838360005b83811015610124578082015181840152602081019050610109565b50505050905090810190601f1680156101515780820380516001836020036101000a031916815260200191505b509250505060405180910390f35b600033905081600160008373ffffffffffffffffffffffffffffffffffffffff1673ffffffffffffffffffffffffffffffffffffffff16815260200190815260200160002090805190602001906101b79291906102a3565b505050565b6101c4610323565b600160008373ffffffffffffffffffffffffffffffffffffffff1673ffffffffffffffffffffffffffffffffffffffff1681526020019081526020016000208054600181600116156101000203166002900480601f0160208091040260200160405190810160405280929190818152602001828054600181600116156101000203166002900480156102975780601f1061026c57610100808354040283529160200191610297565b820191906000526020600020905b81548152906001019060200180831161027a57829003601f168201915b50505050509050919050565b828054600181600116156101000203166002900490600052602060002090601f016020900481019282601f106102e457805160ff1916838001178555610312565b82800160010185558215610312579182015b828111156103115782518255916020019190600101906102f6565b5b50905061031f9190610337565b5090565b602060405190810160405280600081525090565b61035991905b8082111561035557600081600090555060010161033d565b5090565b905600a165627a7a723058203b94ed724cdc8d4c3f944af06d1416ea0812a3d2f67faa278fb0cc1e5dc63a860029",
  "source": "pragma solidity ^0.4.18;\n\n// Holds a contract of all profiles that can be updated.\ncontract EtherProfile {\n    address owner;\n\n    mapping(address => string) addressToData;\n\n    function EtherProfile() public {\n        owner = msg.sender;\n    }\n\n    function getProfile(address _address) public view returns(\n        string\n    ) {\n        return addressToData[_address];\n    }\n\n    // Simple for now because params are not optional\n    function updateProfile(string data) public {\n        address _address = msg.sender;\n        addressToData[_address] = data;\n    }\n}",
  "sourcePath": "/Users/mattkim/Workspaces/ether/ethermail/contracts/EtherProfile.sol",
  "compiler": {
    "name": "solc",
    "version": "0.4.18+commit.9cf6e910.Emscripten.clang"
  },
  "schemaVersion": "1.0.1",
  "updatedAt": "2018-01-16T08:23:25.657Z"
}