{
  "contractName": "EtherProfile",
  "abi": [
    {
      "constant": true,
      "inputs": [
        {
          "name": "_address",
          "type": "address"
        }
      ],
      "name": "getProfile",
      "outputs": [
        {
          "name": "",
          "type": "string"
        },
        {
          "name": "",
          "type": "string"
        },
        {
          "name": "",
          "type": "string"
        },
        {
          "name": "",
          "type": "string"
        }
      ],
      "payable": false,
      "stateMutability": "view",
      "type": "function"
    },
    {
      "constant": false,
      "inputs": [
        {
          "name": "imgurl",
          "type": "string"
        }
      ],
      "name": "updateProfileImgurl",
      "outputs": [],
      "payable": false,
      "stateMutability": "nonpayable",
      "type": "function"
    },
    {
      "constant": false,
      "inputs": [
        {
          "name": "email",
          "type": "string"
        }
      ],
      "name": "updateProfileEmail",
      "outputs": [],
      "payable": false,
      "stateMutability": "nonpayable",
      "type": "function"
    },
    {
      "constant": false,
      "inputs": [
        {
          "name": "aboutMe",
          "type": "string"
        }
      ],
      "name": "updateProfileAboutMe",
      "outputs": [],
      "payable": false,
      "stateMutability": "nonpayable",
      "type": "function"
    },
    {
      "constant": false,
      "inputs": [
        {
          "name": "name",
          "type": "string"
        },
        {
          "name": "imgurl",
          "type": "string"
        },
        {
          "name": "email",
          "type": "string"
        },
        {
          "name": "aboutMe",
          "type": "string"
        }
      ],
      "name": "updateProfile",
      "outputs": [],
      "payable": false,
      "stateMutability": "nonpayable",
      "type": "function"
    },
    {
      "constant": false,
      "inputs": [
        {
          "name": "name",
          "type": "string"
        }
      ],
      "name": "updateProfileName",
      "outputs": [],
      "payable": false,
      "stateMutability": "nonpayable",
      "type": "function"
    },
    {
      "inputs": [],
      "payable": false,
      "stateMutability": "nonpayable",
      "type": "constructor"
    }
  ],
  "bytecode": "0x6060604052341561000f57600080fd5b336000806101000a81548173ffffffffffffffffffffffffffffffffffffffff021916908373ffffffffffffffffffffffffffffffffffffffff160217905550610be08061005e6000396000f300606060405260043610610078576000357c0100000000000000000000000000000000000000000000000000000000900463ffffffff1680630f53a4701461007d5780633600af8b1461027357806356d0bc9a146102d0578063699ef40c1461032d5780639483f25c1461038a578063ee8b7cd9146104b0575b600080fd5b341561008857600080fd5b6100b4600480803573ffffffffffffffffffffffffffffffffffffffff1690602001909190505061050d565b6040518080602001806020018060200180602001858103855289818151815260200191508051906020019080838360005b838110156101005780820151818401526020810190506100e5565b50505050905090810190601f16801561012d5780820380516001836020036101000a031916815260200191505b50858103845288818151815260200191508051906020019080838360005b8381101561016657808201518184015260208101905061014b565b50505050905090810190601f1680156101935780820380516001836020036101000a031916815260200191505b50858103835287818151815260200191508051906020019080838360005b838110156101cc5780820151818401526020810190506101b1565b50505050905090810190601f1680156101f95780820380516001836020036101000a031916815260200191505b50858103825286818151815260200191508051906020019080838360005b83811015610232578082015181840152602081019050610217565b50505050905090810190601f16801561025f5780820380516001836020036101000a031916815260200191505b509850505050505050505060405180910390f35b341561027e57600080fd5b6102ce600480803590602001908201803590602001908080601f016020809104026020016040519081016040528093929190818152602001838380828437820191505050505050919050506108b4565b005b34156102db57600080fd5b61032b600480803590602001908201803590602001908080601f01602080910402602001604051908101604052809392919081815260200183838082843782019150505050505091905050610919565b005b341561033857600080fd5b610388600480803590602001908201803590602001908080601f0160208091040260200160405190810160405280939291908181526020018383808284378201915050505050509190505061097e565b005b341561039557600080fd5b6104ae600480803590602001908201803590602001908080601f0160208091040260200160405190810160405280939291908181526020018383808284378201915050505050509190803590602001908201803590602001908080601f0160208091040260200160405190810160405280939291908181526020018383808284378201915050505050509190803590602001908201803590602001908080601f0160208091040260200160405190810160405280939291908181526020018383808284378201915050505050509190803590602001908201803590602001908080601f016020809104026020016040519081016040528093929190818152602001838380828437820191505050505050919050506109e3565b005b34156104bb57600080fd5b61050b600480803590602001908201803590602001908080601f01602080910402602001604051908101604052809392919081815260200183838082843782019150505050505091905050610a96565b005b610515610afb565b61051d610afb565b610525610afb565b61052d610afb565b600160008673ffffffffffffffffffffffffffffffffffffffff1673ffffffffffffffffffffffffffffffffffffffff168152602001908152602001600020600001600160008773ffffffffffffffffffffffffffffffffffffffff1673ffffffffffffffffffffffffffffffffffffffff168152602001908152602001600020600101600160008873ffffffffffffffffffffffffffffffffffffffff1673ffffffffffffffffffffffffffffffffffffffff168152602001908152602001600020600201600160008973ffffffffffffffffffffffffffffffffffffffff1673ffffffffffffffffffffffffffffffffffffffff168152602001908152602001600020600301838054600181600116156101000203166002900480601f0160208091040260200160405190810160405280929190818152602001828054600181600116156101000203166002900480156106ca5780601f1061069f576101008083540402835291602001916106ca565b820191906000526020600020905b8154815290600101906020018083116106ad57829003601f168201915b50505050509350828054600181600116156101000203166002900480601f0160208091040260200160405190810160405280929190818152602001828054600181600116156101000203166002900480156107665780601f1061073b57610100808354040283529160200191610766565b820191906000526020600020905b81548152906001019060200180831161074957829003601f168201915b50505050509250818054600181600116156101000203166002900480601f0160208091040260200160405190810160405280929190818152602001828054600181600116156101000203166002900480156108025780601f106107d757610100808354040283529160200191610802565b820191906000526020600020905b8154815290600101906020018083116107e557829003601f168201915b50505050509150808054600181600116156101000203166002900480601f01602080910402602001604051908101604052809291908181526020018280546001816001161561010002031660029004801561089e5780601f106108735761010080835404028352916020019161089e565b820191906000526020600020905b81548152906001019060200180831161088157829003601f168201915b5050505050905093509350935093509193509193565b600080339150600160008373ffffffffffffffffffffffffffffffffffffffff1673ffffffffffffffffffffffffffffffffffffffff168152602001908152602001600020905082816001019080519060200190610913929190610b0f565b50505050565b600080339150600160008373ffffffffffffffffffffffffffffffffffffffff1673ffffffffffffffffffffffffffffffffffffffff168152602001908152602001600020905082816002019080519060200190610978929190610b0f565b50505050565b600080339150600160008373ffffffffffffffffffffffffffffffffffffffff1673ffffffffffffffffffffffffffffffffffffffff1681526020019081526020016000209050828160030190805190602001906109dd929190610b0f565b50505050565b600080339150600160008373ffffffffffffffffffffffffffffffffffffffff1673ffffffffffffffffffffffffffffffffffffffff168152602001908152602001600020905085816000019080519060200190610a42929190610b0f565b5084816001019080519060200190610a5b929190610b0f565b5083816002019080519060200190610a74929190610b0f565b5082816003019080519060200190610a8d929190610b0f565b50505050505050565b600080339150600160008373ffffffffffffffffffffffffffffffffffffffff1673ffffffffffffffffffffffffffffffffffffffff168152602001908152602001600020905082816000019080519060200190610af5929190610b0f565b50505050565b602060405190810160405280600081525090565b828054600181600116156101000203166002900490600052602060002090601f016020900481019282601f10610b5057805160ff1916838001178555610b7e565b82800160010185558215610b7e579182015b82811115610b7d578251825591602001919060010190610b62565b5b509050610b8b9190610b8f565b5090565b610bb191905b80821115610bad576000816000905550600101610b95565b5090565b905600a165627a7a72305820f7a324919b5b6e8e453b212b69ccfeca8bd7041467b0be0363a1171719eb202e0029",
  "source": "pragma solidity ^0.4.18;\n\n// Holds a contract of all profiles that can be updated.\ncontract EtherProfile {\n    address owner;\n\n    struct Profile {\n        string name;\n        string imgurl;\n        string email;\n        string aboutMe;\n    }\n\n    mapping(address => Profile) addressToProfile;\n\n    function EtherProfile() public {\n        owner = msg.sender;\n    }\n\n    function getProfile(address _address) public view returns(\n        string,\n        string,\n        string,\n        string\n    ) {\n        return (\n            addressToProfile[_address].name,\n            addressToProfile[_address].imgurl,\n            addressToProfile[_address].email,\n            addressToProfile[_address].aboutMe\n        );\n    }\n\n    // Simple for now because params are not optional\n    function updateProfile(\n        string name,\n        string imgurl,\n        string email,\n        string aboutMe\n    ) public\n    {\n        address _address = msg.sender;\n        Profile storage p = addressToProfile[_address];\n        p.name = name;\n        p.imgurl = imgurl;\n        p.email = email;\n        p.aboutMe = aboutMe;\n    }\n\n    function updateProfileName(string name) public {\n        address _address = msg.sender;\n        Profile storage p = addressToProfile[_address];\n        p.name = name;\n    }\n\n    function updateProfileImgurl(string imgurl) public {\n        address _address = msg.sender;\n        Profile storage p = addressToProfile[_address];\n        p.imgurl = imgurl;\n    }\n\n    function updateProfileEmail(string email) public {\n        address _address = msg.sender;\n        Profile storage p = addressToProfile[_address];\n        p.email = email;\n    }\n\n    function updateProfileAboutMe(string aboutMe) public {\n        address _address = msg.sender;\n        Profile storage p = addressToProfile[_address];\n        p.aboutMe = aboutMe;\n    }\n}",
  "sourcePath": "/Users/mattkim/Workspaces/ether/ethermail/contracts/EtherProfile.sol",
  "compiler": {
    "name": "solc",
    "version": "0.4.18+commit.9cf6e910.Emscripten.clang"
  },
  "schemaVersion": "1.0.1",
  "updatedAt": "2018-01-18T16:45:50.420Z"
}