{
  "contractName": "EtherProfile",
  "abi": [
    {
      "constant": true,
      "inputs": [
        {
          "name": "_address",
          "type": "address"
        }
      ],
      "name": "getProfile",
      "outputs": [
        {
          "name": "",
          "type": "address"
        },
        {
          "name": "",
          "type": "uint256"
        },
        {
          "name": "",
          "type": "string"
        },
        {
          "name": "",
          "type": "string"
        },
        {
          "name": "",
          "type": "string"
        },
        {
          "name": "",
          "type": "string"
        }
      ],
      "payable": false,
      "stateMutability": "view",
      "type": "function"
    },
    {
      "constant": true,
      "inputs": [],
      "name": "numAccounts",
      "outputs": [
        {
          "name": "",
          "type": "uint256"
        }
      ],
      "payable": false,
      "stateMutability": "view",
      "type": "function"
    },
    {
      "constant": false,
      "inputs": [
        {
          "name": "name",
          "type": "string"
        },
        {
          "name": "imgURL",
          "type": "string"
        },
        {
          "name": "contact",
          "type": "string"
        },
        {
          "name": "aboutMe",
          "type": "string"
        }
      ],
      "name": "updateProfile",
      "outputs": [
        {
          "name": "",
          "type": "uint256"
        }
      ],
      "payable": false,
      "stateMutability": "nonpayable",
      "type": "function"
    },
    {
      "inputs": [],
      "payable": false,
      "stateMutability": "nonpayable",
      "type": "constructor"
    },
    {
      "anonymous": false,
      "inputs": [
        {
          "indexed": false,
          "name": "addr",
          "type": "address"
        }
      ],
      "name": "UpdateProfile",
      "type": "event"
    }
  ],
  "bytecode": "0x60606040526000600155341561001457600080fd5b336000806101000a81548173ffffffffffffffffffffffffffffffffffffffff021916908373ffffffffffffffffffffffffffffffffffffffff160217905550610cc0806100636000396000f300606060405260043610610057576000357c0100000000000000000000000000000000000000000000000000000000900463ffffffff1680630f53a4701461005c5780638ce25a931461028c5780639483f25c146102b5575b600080fd5b341561006757600080fd5b610093600480803573ffffffffffffffffffffffffffffffffffffffff169060200190919050506103ef565b604051808773ffffffffffffffffffffffffffffffffffffffff1673ffffffffffffffffffffffffffffffffffffffff16815260200186815260200180602001806020018060200180602001858103855289818151815260200191508051906020019080838360005b838110156101175780820151818401526020810190506100fc565b50505050905090810190601f1680156101445780820380516001836020036101000a031916815260200191505b50858103845288818151815260200191508051906020019080838360005b8381101561017d578082015181840152602081019050610162565b50505050905090810190601f1680156101aa5780820380516001836020036101000a031916815260200191505b50858103835287818151815260200191508051906020019080838360005b838110156101e35780820151818401526020810190506101c8565b50505050905090810190601f1680156102105780820380516001836020036101000a031916815260200191505b50858103825286818151815260200191508051906020019080838360005b8381101561024957808201518184015260208101905061022e565b50505050905090810190601f1680156102765780820380516001836020036101000a031916815260200191505b509a505050505050505050505060405180910390f35b341561029757600080fd5b61029f6108b8565b6040518082815260200191505060405180910390f35b34156102c057600080fd5b6103d9600480803590602001908201803590602001908080601f0160208091040260200160405190810160405280939291908181526020018383808284378201915050505050509190803590602001908201803590602001908080601f0160208091040260200160405190810160405280939291908181526020018383808284378201915050505050509190803590602001908201803590602001908080601f0160208091040260200160405190810160405280939291908181526020018383808284378201915050505050509190803590602001908201803590602001908080601f016020809104026020016040519081016040528093929190818152602001838380828437820191505050505050919050506108be565b6040518082815260200191505060405180910390f35b6000806103fa610ad3565b610402610ad3565b61040a610ad3565b610412610ad3565b6000600360008973ffffffffffffffffffffffffffffffffffffffff1673ffffffffffffffffffffffffffffffffffffffff16815260200190815260200160002054905060008111151561054f576000808090506040805190810160405280600781526020017f6661696c757265000000000000000000000000000000000000000000000000008152506040805190810160405280600781526020017f6661696c757265000000000000000000000000000000000000000000000000008152506040805190810160405280600781526020017f6661696c757265000000000000000000000000000000000000000000000000008152506040805190810160405280600781526020017f6661696c757265000000000000000000000000000000000000000000000000008152509650965096509650965096506108ae565b60028181548110151561055e57fe5b906000526020600020906006020160000160009054906101000a900473ffffffffffffffffffffffffffffffffffffffff1660028281548110151561059f57fe5b9060005260206000209060060201600101546002838154811015156105c057fe5b90600052602060002090600602016002016002848154811015156105e057fe5b906000526020600020906006020160030160028581548110151561060057fe5b906000526020600020906006020160040160028681548110151561062057fe5b9060005260206000209060060201600501838054600181600116156101000203166002900480601f0160208091040260200160405190810160405280929190818152602001828054600181600116156101000203166002900480156106c65780601f1061069b576101008083540402835291602001916106c6565b820191906000526020600020905b8154815290600101906020018083116106a957829003601f168201915b50505050509350828054600181600116156101000203166002900480601f0160208091040260200160405190810160405280929190818152602001828054600181600116156101000203166002900480156107625780601f1061073757610100808354040283529160200191610762565b820191906000526020600020905b81548152906001019060200180831161074557829003601f168201915b50505050509250818054600181600116156101000203166002900480601f0160208091040260200160405190810160405280929190818152602001828054600181600116156101000203166002900480156107fe5780601f106107d3576101008083540402835291602001916107fe565b820191906000526020600020905b8154815290600101906020018083116107e157829003601f168201915b50505050509150808054600181600116156101000203166002900480601f01602080910402602001604051908101604052809291908181526020018280546001816001161561010002031660029004801561089a5780601f1061086f5761010080835404028352916020019161089a565b820191906000526020600020905b81548152906001019060200180831161087d57829003601f168201915b505050505090509650965096509650965096505b5091939550919395565b60015481565b6000806000339150600360008373ffffffffffffffffffffffffffffffffffffffff1673ffffffffffffffffffffffffffffffffffffffff16815260200190815260200160002054905060008111151561091e5761091b826109ff565b90505b8660028281548110151561092e57fe5b90600052602060002090600602016002019080519060200190610952929190610ae7565b508560028281548110151561096357fe5b90600052602060002090600602016003019080519060200190610987929190610ae7565b508460028281548110151561099857fe5b906000526020600020906006020160040190805190602001906109bc929190610ae7565b50836002828154811015156109cd57fe5b906000526020600020906006020160050190805190602001906109f1929190610ae7565b508092505050949350505050565b600080600060028054809190600101610a189190610b67565b915081600360008673ffffffffffffffffffffffffffffffffffffffff1673ffffffffffffffffffffffffffffffffffffffff16815260200190815260200160002081905550600282815481101515610a6d57fe5b90600052602060002090600602019050838160000160006101000a81548173ffffffffffffffffffffffffffffffffffffffff021916908373ffffffffffffffffffffffffffffffffffffffff1602179055508181600101819055508192505050919050565b602060405190810160405280600081525090565b828054600181600116156101000203166002900490600052602060002090601f016020900481019282601f10610b2857805160ff1916838001178555610b56565b82800160010185558215610b56579182015b82811115610b55578251825591602001919060010190610b3a565b5b509050610b639190610b99565b5090565b815481835581811511610b9457600602816006028360005260206000209182019101610b939190610bbe565b5b505050565b610bbb91905b80821115610bb7576000816000905550600101610b9f565b5090565b90565b610c4991905b80821115610c4557600080820160006101000a81549073ffffffffffffffffffffffffffffffffffffffff02191690556001820160009055600282016000610c0c9190610c4c565b600382016000610c1c9190610c4c565b600482016000610c2c9190610c4c565b600582016000610c3c9190610c4c565b50600601610bc4565b5090565b90565b50805460018160011615610100020316600290046000825580601f10610c725750610c91565b601f016020900490600052602060002090810190610c909190610b99565b5b505600a165627a7a7230582034b1199f93b95b33c22ad1bc0bbf8351ca2d23ada4553ccc626a8d814c132d3d0029",
  "source": "pragma solidity ^0.4.18;\n\n// Holds a contract of all profiles that can be updated.\ncontract EtherProfile {\n    address owner;\n    uint256 public numAccounts = 0;\n\n    Profile[] profiles;\n    mapping(address => uint256) addressToProfileId;\n\n    struct Profile {\n        address addr;\n        uint256 id;\n        string name;\n        string imgURL;\n        string contact;\n        string aboutMe;\n    }\n\n    event UpdateProfile(address addr);\n    \n    function EtherProfile() public {\n        owner = msg.sender;\n    }\n\n    function getProfile(address _address) public view returns(\n        address,\n        uint256,\n        string,\n        string,\n        string,\n        string\n    ) {\n        uint256 id = addressToProfileId[_address];\n        // TODO: we should be able to catch a require here.\n        if (id <= 0) {\n            return (\n                0x0000000000000000000000000000000000000000,\n                0,\n                \"failure\",\n                \"failure\",\n                \"failure\",\n                \"failure\"\n            );\n        }\n\n        return (\n            profiles[id].addr,\n            profiles[id].id,\n            profiles[id].name,\n            profiles[id].imgURL,\n            profiles[id].contact,\n            profiles[id].aboutMe\n        );\n    }\n\n    // Simple for now because params are not optional\n    function updateProfile(\n        string name,\n        string imgURL,\n        string contact,\n        string aboutMe\n    ) public returns (uint256)\n    {\n        address _address = msg.sender;\n        \n        uint256 id = addressToProfileId[_address];\n\n        if (id <= 0) {\n            id = createProfile(_address);\n        }\n\n        profiles[id].name = name;\n        profiles[id].imgURL = imgURL;\n        profiles[id].contact = contact;\n        profiles[id].aboutMe = aboutMe;\n\n        return id;\n    }\n\n    function createProfile(address _address) private returns(uint256) {\n        uint256 id = profiles.length++;\n        addressToProfileId[_address] = id;\n        Profile storage p = profiles[id];\n        p.addr = _address;\n        p.id = id;\n        return id;\n    }\n}",
  "sourcePath": "/Users/mattkim/Workspaces/ether/ethermail/contracts/EtherProfile.sol",
  "compiler": {
    "name": "solc",
    "version": "0.4.18+commit.9cf6e910.Emscripten.clang"
  },
  "schemaVersion": "1.0.1",
  "updatedAt": "2018-01-14T16:50:07.390Z"
}